{"abi":[{"type":"constructor","inputs":[{"name":"_token0","type":"address","internalType":"address"},{"name":"_token1","type":"address","internalType":"address"},{"name":"_pool","type":"address","internalType":"address"}],"stateMutability":"nonpayable"},{"type":"function","name":"POOL","inputs":[],"outputs":[{"name":"","type":"address","internalType":"address"}],"stateMutability":"view"},{"type":"function","name":"TOKEN0","inputs":[],"outputs":[{"name":"","type":"address","internalType":"address"}],"stateMutability":"view"},{"type":"function","name":"TOKEN1","inputs":[],"outputs":[{"name":"","type":"address","internalType":"address"}],"stateMutability":"view"},{"type":"function","name":"getPositionInfo","inputs":[{"name":"tickLower","type":"int24","internalType":"int24"},{"name":"tickUpper","type":"int24","internalType":"int24"}],"outputs":[{"name":"liquidity","type":"uint128","internalType":"uint128"},{"name":"tokensOwed0","type":"uint256","internalType":"uint256"},{"name":"tokensOwed1","type":"uint256","internalType":"uint256"}],"stateMutability":"view"},{"type":"function","name":"getPositionValue","inputs":[{"name":"tickLower","type":"int24","internalType":"int24"},{"name":"tickUpper","type":"int24","internalType":"int24"}],"outputs":[{"name":"principal0","type":"uint256","internalType":"uint256"},{"name":"principal1","type":"uint256","internalType":"uint256"},{"name":"fees0","type":"uint256","internalType":"uint256"},{"name":"fees1","type":"uint256","internalType":"uint256"}],"stateMutability":"view"},{"type":"function","name":"getTotalPositionValue","inputs":[{"name":"tickLowers","type":"int24[]","internalType":"int24[]"},{"name":"tickUppers","type":"int24[]","internalType":"int24[]"}],"outputs":[{"name":"principal0Total","type":"uint256","internalType":"uint256"},{"name":"principal1Total","type":"uint256","internalType":"uint256"},{"name":"fees0Total","type":"uint256","internalType":"uint256"},{"name":"fees1Total","type":"uint256","internalType":"uint256"}],"stateMutability":"view"},{"type":"function","name":"mintRange","inputs":[{"name":"tickLower","type":"int24","internalType":"int24"},{"name":"tickUpper","type":"int24","internalType":"int24"},{"name":"liquidity","type":"uint128","internalType":"uint128"}],"outputs":[{"name":"amount0","type":"uint256","internalType":"uint256"},{"name":"amount1","type":"uint256","internalType":"uint256"}],"stateMutability":"nonpayable"},{"type":"function","name":"mintRanges","inputs":[{"name":"tickLowers","type":"int24[]","internalType":"int24[]"},{"name":"tickUppers","type":"int24[]","internalType":"int24[]"},{"name":"liquidities","type":"uint128[]","internalType":"uint128[]"}],"outputs":[{"name":"total0","type":"uint256","internalType":"uint256"},{"name":"total1","type":"uint256","internalType":"uint256"}],"stateMutability":"nonpayable"},{"type":"function","name":"pokeRange","inputs":[{"name":"tickLower","type":"int24","internalType":"int24"},{"name":"tickUpper","type":"int24","internalType":"int24"}],"outputs":[],"stateMutability":"nonpayable"},{"type":"function","name":"pokeRanges","inputs":[{"name":"tickLowers","type":"int24[]","internalType":"int24[]"},{"name":"tickUppers","type":"int24[]","internalType":"int24[]"}],"outputs":[],"stateMutability":"nonpayable"},{"type":"function","name":"uniswapV3MintCallback","inputs":[{"name":"amount0Owed","type":"uint256","internalType":"uint256"},{"name":"amount1Owed","type":"uint256","internalType":"uint256"},{"name":"","type":"bytes","internalType":"bytes"}],"outputs":[],"stateMutability":"nonpayable"}],"bytecode":{"object":"0x60e060405234801561001057600080fd5b50604051611de3380380611de38339818101604052606081101561003357600080fd5b810190808051906020019092919080519060200190929190805190602001909291905050508273ffffffffffffffffffffffffffffffffffffffff1660808173ffffffffffffffffffffffffffffffffffffffff1660601b815250508173ffffffffffffffffffffffffffffffffffffffff1660a08173ffffffffffffffffffffffffffffffffffffffff1660601b815250508073ffffffffffffffffffffffffffffffffffffffff1660c08173ffffffffffffffffffffffffffffffffffffffff1660601b8152505050505060805160601c60a05160601c60c05160601c611c8661015d6000398061083752806109675280610aa45280610bbe5280610c6d5280610dfe52806111ad52508061094352806113bf52508061078a52806112775250611c866000f3fe608060405234801561001057600080fd5b50600436106100a95760003560e01c8063734c6b6211610071578063734c6b62146103605780637535d246146103d25780637a874935146104065780638f3f4e801461047b578063d30a7572146104e2578063d3487997146105d9576100a9565b806302615ea1146100ae578063443ec74d146101ec57806358f2861b146102205780635ee04d78146102ee57806363b7320114610322575b600080fd5b6101cf600480360360608110156100c457600080fd5b81019080803590602001906401000000008111156100e157600080fd5b8201836020820111156100f357600080fd5b8035906020019184602083028401116401000000008311171561011557600080fd5b90919293919293908035906020019064010000000081111561013657600080fd5b82018360208201111561014857600080fd5b8035906020019184602083028401116401000000008311171561016a57600080fd5b90919293919293908035906020019064010000000081111561018b57600080fd5b82018360208201111561019d57600080fd5b803590602001918460208302840111640100000000831117156101bf57600080fd5b9091929391929390505050610666565b604051808381526020018281526020019250505060405180910390f35b6101f4610788565b604051808273ffffffffffffffffffffffffffffffffffffffff16815260200191505060405180910390f35b6102ec6004803603604081101561023657600080fd5b810190808035906020019064010000000081111561025357600080fd5b82018360208201111561026557600080fd5b8035906020019184602083028401116401000000008311171561028757600080fd5b9091929391929390803590602001906401000000008111156102a857600080fd5b8201836020820111156102ba57600080fd5b803590602001918460208302840111640100000000831117156102dc57600080fd5b90919293919293905050506107ac565b005b6102f6610941565b604051808273ffffffffffffffffffffffffffffffffffffffff16815260200191505060405180910390f35b61035e6004803603604081101561033857600080fd5b81019080803560020b9060200190929190803560020b9060200190929190505050610965565b005b61039c6004803603604081101561037657600080fd5b81019080803560020b9060200190929190803560020b9060200190929190505050610a39565b60405180846fffffffffffffffffffffffffffffffff168152602001838152602001828152602001935050505060405180910390f35b6103da610bbc565b604051808273ffffffffffffffffffffffffffffffffffffffff16815260200191505060405180910390f35b61045e6004803603606081101561041c57600080fd5b81019080803560020b9060200190929190803560020b906020019092919080356fffffffffffffffffffffffffffffffff169060200190929190505050610be0565b604051808381526020018281526020019250505060405180910390f35b6104b76004803603604081101561049157600080fd5b81019080803560020b9060200190929190803560020b9060200190929190505050610df4565b6040518085815260200184815260200183815260200182815260200194505050505060405180910390f35b6105ae600480360360408110156104f857600080fd5b810190808035906020019064010000000081111561051557600080fd5b82018360208201111561052757600080fd5b8035906020019184602083028401116401000000008311171561054957600080fd5b90919293919293908035906020019064010000000081111561056a57600080fd5b82018360208201111561057c57600080fd5b8035906020019184602083028401116401000000008311171561059e57600080fd5b90919293919293905050506110ab565b6040518085815260200184815260200183815260200182815260200194505050505060405180910390f35b610664600480360360608110156105ef57600080fd5b8101908080359060200190929190803590602001909291908035906020019064010000000081111561062057600080fd5b82018360208201111561063257600080fd5b8035906020019184600183028401116401000000008311171561065457600080fd5b90919293919293905050506111ab565b005b6000806000888890509050808787905014801561068557508085859050145b6106f7576040517f08c379a00000000000000000000000000000000000000000000000000000000081526004018080602001828103825260158152602001807f6172726179206c656e677468206d69736d61746368000000000000000000000081525060200191505060405180910390fd5b60005b8181101561077b5760008061075e8c8c8581811061071457fe5b9050602002013560020b8b8b8681811061072a57fe5b9050602002013560020b8a8a8781811061074057fe5b905060200201356fffffffffffffffffffffffffffffffff16610be0565b9150915081860195508085019450505080806001019150506106fa565b5050965096945050505050565b7f000000000000000000000000000000000000000000000000000000000000000081565b818190508484905014610827576040517f08c379a000000000000000000000000000000000000000000000000000000000815260040180806020018281038252600f8152602001807f6c656e677468206d69736d61746368000000000000000000000000000000000081525060200191505060405180910390fd5b60005b8484905081101561093a577f000000000000000000000000000000000000000000000000000000000000000073ffffffffffffffffffffffffffffffffffffffff1663a34123a786868481811061087d57fe5b9050602002013560020b85858581811061089357fe5b9050602002013560020b60006040518463ffffffff1660e01b8152600401808460020b81526020018360020b815260200182815260200193505050506040805180830381600087803b1580156108e857600080fd5b505af11580156108fc573d6000803e3d6000fd5b505050506040513d604081101561091257600080fd5b810190808051906020019092919080519060200190929190505050505080600101905061082a565b5050505050565b7f000000000000000000000000000000000000000000000000000000000000000081565b7f000000000000000000000000000000000000000000000000000000000000000073ffffffffffffffffffffffffffffffffffffffff1663a34123a7838360006040518463ffffffff1660e01b8152600401808460020b81526020018360020b815260200182815260200193505050506040805180830381600087803b1580156109ee57600080fd5b505af1158015610a02573d6000803e3d6000fd5b505050506040513d6040811015610a1857600080fd5b81019080805190602001909291908051906020019092919050505050505050565b600080600080308686604051602001808473ffffffffffffffffffffffffffffffffffffffff1660601b81526014018360020b60e81b81526003018260020b60e81b8152600301935050505060405160208183030381529060405280519060200120905060008060007f000000000000000000000000000000000000000000000000000000000000000073ffffffffffffffffffffffffffffffffffffffff1663514ea4bf856040518263ffffffff1660e01b81526004018082815260200191505060a06040518083038186803b158015610b1357600080fd5b505afa158015610b27573d6000803e3d6000fd5b505050506040513d60a0811015610b3d57600080fd5b8101908080519060200190929190805190602001909291908051906020019092919080519060200190929190805190602001909291905050509450945050509250828282816fffffffffffffffffffffffffffffffff169150806fffffffffffffffffffffffffffffffff169050965096509650505050509250925092565b7f000000000000000000000000000000000000000000000000000000000000000081565b6000806000836fffffffffffffffffffffffffffffffff1611610c6b576040517f08c379a000000000000000000000000000000000000000000000000000000000815260040180806020018281038252600b8152602001807f6c69717569646974793d3000000000000000000000000000000000000000000081525060200191505060405180910390fd5b7f000000000000000000000000000000000000000000000000000000000000000073ffffffffffffffffffffffffffffffffffffffff16633c8a7d8d30878787604051806020016040528060008152506040518663ffffffff1660e01b8152600401808673ffffffffffffffffffffffffffffffffffffffff1681526020018560020b81526020018460020b8152602001836fffffffffffffffffffffffffffffffff16815260200180602001828103825283818151815260200191508051906020019080838360005b83811015610d50578082015181840152602081019050610d35565b50505050905090810190601f168015610d7d5780820380516001836020036101000a031916815260200191505b5096505050505050506040805180830381600087803b158015610d9f57600080fd5b505af1158015610db3573d6000803e3d6000fd5b505050506040513d6040811015610dc957600080fd5b8101908080519060200190929190805190602001909291905050508092508193505050935093915050565b60008060008060007f000000000000000000000000000000000000000000000000000000000000000090506000308888604051602001808473ffffffffffffffffffffffffffffffffffffffff1660601b81526014018360020b60e81b81526003018260020b60e81b8152600301935050505060405160208183030381529060405280519060200120905060008060008473ffffffffffffffffffffffffffffffffffffffff1663514ea4bf856040518263ffffffff1660e01b81526004018082815260200191505060a06040518083038186803b158015610ed557600080fd5b505afa158015610ee9573d6000803e3d6000fd5b505050506040513d60a0811015610eff57600080fd5b81019080805190602001909291908051906020019092919080519060200190929190805190602001909291908051906020019092919050505094509450505092506000836fffffffffffffffffffffffffffffffff161415610f7357600080600080985098509850985050505050506110a2565b60008573ffffffffffffffffffffffffffffffffffffffff16633850c7bd6040518163ffffffff1660e01b815260040160e06040518083038186803b158015610fbb57600080fd5b505afa158015610fcf573d6000803e3d6000fd5b505050506040513d60e0811015610fe557600080fd5b8101908080519060200190929190805190602001909291908051906020019092919080519060200190929190805190602001909291908051906020019092919080519060200190929190505050505050505050905060006110458d611502565b905060006110528d611502565b90506000806110638585858b61193d565b91509150819d50809c50866fffffffffffffffffffffffffffffffff169b50856fffffffffffffffffffffffffffffffff169a50505050505050505050505b92959194509250565b60008060008085859050888890501461112c576040517f08c379a000000000000000000000000000000000000000000000000000000000815260040180806020018281038252600f8152602001807f6c656e677468206d69736d61746368000000000000000000000000000000000081525060200191505060405180910390fd5b60005b8888905081101561119f576000806000806111748d8d8781811061114f57fe5b9050602002013560020b8c8c8881811061116557fe5b9050602002013560020b610df4565b935093509350935083890198508288019750818701965080860195505050505080600101905061112f565b50945094509450949050565b7f000000000000000000000000000000000000000000000000000000000000000073ffffffffffffffffffffffffffffffffffffffff163373ffffffffffffffffffffffffffffffffffffffff161461126c576040517f08c379a00000000000000000000000000000000000000000000000000000000081526004018080602001828103825260178152602001807f63616c6c6261636b206f6e6c792066726f6d20706f6f6c00000000000000000081525060200191505060405180910390fd5b60008411156113b4577f000000000000000000000000000000000000000000000000000000000000000073ffffffffffffffffffffffffffffffffffffffff1663a9059cbb33866040518363ffffffff1660e01b8152600401808373ffffffffffffffffffffffffffffffffffffffff16815260200182815260200192505050602060405180830381600087803b15801561130657600080fd5b505af115801561131a573d6000803e3d6000fd5b505050506040513d602081101561133057600080fd5b81019080805190602001909291905050506113b3576040517f08c379a00000000000000000000000000000000000000000000000000000000081526004018080602001828103825260168152602001807f544f4b454e30207472616e73666572206661696c65640000000000000000000081525060200191505060405180910390fd5b5b60008311156114fc577f000000000000000000000000000000000000000000000000000000000000000073ffffffffffffffffffffffffffffffffffffffff1663a9059cbb33856040518363ffffffff1660e01b8152600401808373ffffffffffffffffffffffffffffffffffffffff16815260200182815260200192505050602060405180830381600087803b15801561144e57600080fd5b505af1158015611462573d6000803e3d6000fd5b505050506040513d602081101561147857600080fd5b81019080805190602001909291905050506114fb576040517f08c379a00000000000000000000000000000000000000000000000000000000081526004018080602001828103825260168152602001807f544f4b454e31207472616e73666572206661696c65640000000000000000000081525060200191505060405180910390fd5b5b50505050565b60008060008360020b12611519578260020b611521565b8260020b6000035b90507ffffffffffffffffffffffffffffffffffffffffffffffffffffffffffff2761860000360020b8111156115bf576040517f08c379a00000000000000000000000000000000000000000000000000000000081526004018080602001828103825260018152602001807f540000000000000000000000000000000000000000000000000000000000000081525060200191505060405180910390fd5b6000806001831614156115e3577001000000000000000000000000000000006115f5565b6ffffcb933bd6fad37aa2d162d1a5940015b70ffffffffffffffffffffffffffffffffff1690506000600283161461162f5760806ffff97272373d413259a46990580e213a8202901c90505b600060048316146116545760806ffff2e50f5f656932ef12357cf3c7fdcc8202901c90505b600060088316146116795760806fffe5caca7e10e4e61c3624eaa0941cd08202901c90505b6000601083161461169e5760806fffcb9843d60f6159c9db58835c9266448202901c90505b600060208316146116c35760806fff973b41fa98c081472e6896dfb254c08202901c90505b600060408316146116e85760806fff2ea16466c96a3843ec78b326b528618202901c90505b6000608083161461170d5760806ffe5dee046a99a2a811c461f1969c30538202901c90505b60006101008316146117335760806ffcbe86c7900a88aedcffc83b479aa3a48202901c90505b60006102008316146117595760806ff987a7253ac413176f2b074cf7815e548202901c90505b600061040083161461177f5760806ff3392b0822b70005940c7a398e4b70f38202901c90505b60006108008316146117a55760806fe7159475a2c29b7443b29c7fa6e889d98202901c90505b60006110008316146117cb5760806fd097f3bdfd2022b8845ad8f792aa58258202901c90505b60006120008316146117f15760806fa9f746462d870fdf8a65dc1f90e061e58202901c90505b60006140008316146118175760806f70d869a156d2a1b890bb3df62baf32f78202901c90505b600061800083161461183d5760806f31be135f97d08fd981231505542fcfa68202901c90505b6000620100008316146118645760806f09aa508b5b7a84e1c677de54f3e99bc98202901c90505b60006202000083161461188a5760806e5d6af8dedb81196699c329225ee6048202901c90505b6000620400008316146118af5760806d2216e584f5fa1ea926041bedfe988202901c90505b6000620800008316146118d25760806b048a170391f7dc42444e8fa28202901c90505b60008460020b131561190b57807fffffffffffffffffffffffffffffffffffffffffffffffffffffffffffffffff8161190757fe5b0490505b6000640100000000828161191b57fe5b061461192857600161192b565b60005b60ff16602082901c0192505050919050565b6000808373ffffffffffffffffffffffffffffffffffffffff168573ffffffffffffffffffffffffffffffffffffffff16111561197f57838580955081965050505b8473ffffffffffffffffffffffffffffffffffffffff168673ffffffffffffffffffffffffffffffffffffffff16116119c4576119bd858585611a2f565b9150611a26565b8373ffffffffffffffffffffffffffffffffffffffff168673ffffffffffffffffffffffffffffffffffffffff161015611a1757611a03868585611a2f565b9150611a10858785611aea565b9050611a25565b611a22858585611aea565b90505b5b94509492505050565b60008273ffffffffffffffffffffffffffffffffffffffff168473ffffffffffffffffffffffffffffffffffffffff161115611a7057828480945081955050505b8373ffffffffffffffffffffffffffffffffffffffff16611ad9606060ff16846fffffffffffffffffffffffffffffffff16901b86860373ffffffffffffffffffffffffffffffffffffffff168673ffffffffffffffffffffffffffffffffffffffff16611b76565b81611ae057fe5b0490509392505050565b60008273ffffffffffffffffffffffffffffffffffffffff168473ffffffffffffffffffffffffffffffffffffffff161115611b2b57828480945081955050505b611b6d826fffffffffffffffffffffffffffffffff1685850373ffffffffffffffffffffffffffffffffffffffff166c01000000000000000000000000611b76565b90509392505050565b600080600080198587098587029250828110838203039150506000811415611bb15760008411611ba557600080fd5b83820492505050611c49565b808411611bbd57600080fd5b600084868809905082811182039150808303925060008586600003169050808604955080840493506001818260000304019050808302841793506000600287600302189050808702600203810290508087026002038102905080870260020381029050808702600203810290508087026002038102905080870260020381029050808502955050505050505b939250505056fea26469706673582212202533d08007c0aca265dbce6464cece150528bd13d377a6cda89c349897732edd64736f6c63430007060033","linkReferences":{}},"methodIdentifiers":{"POOL()":"7535d246","TOKEN0()":"443ec74d","TOKEN1()":"5ee04d78","getPositionInfo(int24,int24)":"734c6b62","getPositionValue(int24,int24)":"8f3f4e80","getTotalPositionValue(int24[],int24[])":"d30a7572","mintRange(int24,int24,uint128)":"7a874935","mintRanges(int24[],int24[],uint128[])":"02615ea1","pokeRange(int24,int24)":"63b73201","pokeRanges(int24[],int24[])":"58f2861b","uniswapV3MintCallback(uint256,uint256,bytes)":"d3487997"},"id":55}