{"abi":[{"type":"constructor","inputs":[{"name":"_token0","type":"address","internalType":"address"},{"name":"_token1","type":"address","internalType":"address"},{"name":"_pool","type":"address","internalType":"address"}],"stateMutability":"nonpayable"},{"type":"function","name":"MAX_TICK_MOVE","inputs":[],"outputs":[{"name":"","type":"int24","internalType":"int24"}],"stateMutability":"view"},{"type":"function","name":"POOL","inputs":[],"outputs":[{"name":"","type":"address","internalType":"address"}],"stateMutability":"view"},{"type":"function","name":"TOKEN0","inputs":[],"outputs":[{"name":"","type":"address","internalType":"address"}],"stateMutability":"view"},{"type":"function","name":"TOKEN1","inputs":[],"outputs":[{"name":"","type":"address","internalType":"address"}],"stateMutability":"view"},{"type":"function","name":"swapExact0For1","inputs":[{"name":"amountIn","type":"uint256","internalType":"uint256"}],"outputs":[],"stateMutability":"nonpayable"},{"type":"function","name":"swapExact1For0","inputs":[{"name":"amountIn","type":"uint256","internalType":"uint256"}],"outputs":[],"stateMutability":"nonpayable"},{"type":"function","name":"uniswapV3SwapCallback","inputs":[{"name":"amount0Delta","type":"int256","internalType":"int256"},{"name":"amount1Delta","type":"int256","internalType":"int256"},{"name":"","type":"bytes","internalType":"bytes"}],"outputs":[],"stateMutability":"nonpayable"}],"bytecode":{"object":"0x60e060405234801561001057600080fd5b506040516112663803806112668339818101604052606081101561003357600080fd5b810190808051906020019092919080519060200190929190805190602001909291905050508273ffffffffffffffffffffffffffffffffffffffff1660808173ffffffffffffffffffffffffffffffffffffffff1660601b815250508173ffffffffffffffffffffffffffffffffffffffff1660a08173ffffffffffffffffffffffffffffffffffffffff1660601b815250508073ffffffffffffffffffffffffffffffffffffffff1660c08173ffffffffffffffffffffffffffffffffffffffff1660601b8152505050505060805160601c60a05160601c60c05160601c61110e610158600039806102a252806103f452806105ef52806107475280610918528061093c5250806108f45280610b595250806108ca5280610a0b525061110e6000f3fe608060405234801561001057600080fd5b506004361061007d5760003560e01c80635ae7eb961161005b5780635ae7eb96146101125780635ee04d78146101335780637535d24614610167578063fa461e331461019b5761007d565b8063166015901461008257806320484aed146100b0578063443ec74d146100de575b600080fd5b6100ae6004803603602081101561009857600080fd5b8101908080359060200190929190505050610228565b005b6100dc600480360360208110156100c657600080fd5b8101908080359060200190929190505050610575565b005b6100e66108c8565b604051808273ffffffffffffffffffffffffffffffffffffffff16815260200191505060405180910390f35b61011a6108ec565b604051808260020b815260200191505060405180910390f35b61013b6108f2565b604051808273ffffffffffffffffffffffffffffffffffffffff16815260200191505060405180910390f35b61016f610916565b604051808273ffffffffffffffffffffffffffffffffffffffff16815260200191505060405180910390f35b610226600480360360608110156101b157600080fd5b810190808035906020019092919080359060200190929190803590602001906401000000008111156101e257600080fd5b8201836020820111156101f457600080fd5b8035906020019184600183028401116401000000008311171561021657600080fd5b909192939192939050505061093a565b005b6000811161029e576040517f08c379a000000000000000000000000000000000000000000000000000000000815260040180806020018281038252600c8152602001807f616d6f756e74496e203d2030000000000000000000000000000000000000000081525060200191505060405180910390fd5b60007f000000000000000000000000000000000000000000000000000000000000000073ffffffffffffffffffffffffffffffffffffffff16633850c7bd6040518163ffffffff1660e01b815260040160e06040518083038186803b15801561030657600080fd5b505afa15801561031a573d6000803e3d6000fd5b505050506040513d60e081101561033057600080fd5b8101908080519060200190929190805190602001909291908051906020019092919080519060200190929190805190602001909291908051906020019092919080519060200190929190505050505050505091505060006101f4820390507ffffffffffffffffffffffffffffffffffffffffffffffffffffffffffff2761860020b8160020b12156103e0577ffffffffffffffffffffffffffffffffffffffffffffffffffffffffffff2761890505b60006103eb82610c9d565b905060008490507f000000000000000000000000000000000000000000000000000000000000000073ffffffffffffffffffffffffffffffffffffffff1663128acb083060018486604051806020016040528060008152506040518663ffffffff1660e01b8152600401808673ffffffffffffffffffffffffffffffffffffffff16815260200185151581526020018481526020018373ffffffffffffffffffffffffffffffffffffffff16815260200180602001828103825283818151815260200191508051906020019080838360005b838110156104d85780820151818401526020810190506104bd565b50505050905090810190601f1680156105055780820380516001836020036101000a031916815260200191505b5096505050505050506040805180830381600087803b15801561052757600080fd5b505af115801561053b573d6000803e3d6000fd5b505050506040513d604081101561055157600080fd5b81019080805190602001909291908051906020019092919050505050505050505050565b600081116105eb576040517f08c379a000000000000000000000000000000000000000000000000000000000815260040180806020018281038252600c8152602001807f616d6f756e74496e203d2030000000000000000000000000000000000000000081525060200191505060405180910390fd5b60007f000000000000000000000000000000000000000000000000000000000000000073ffffffffffffffffffffffffffffffffffffffff16633850c7bd6040518163ffffffff1660e01b815260040160e06040518083038186803b15801561065357600080fd5b505afa158015610667573d6000803e3d6000fd5b505050506040513d60e081101561067d57600080fd5b8101908080519060200190929190805190602001909291908051906020019092919080519060200190929190805190602001909291908051906020019092919080519060200190929190505050505050505091505060006101f4820190507ffffffffffffffffffffffffffffffffffffffffffffffffffffffffffff2761860000360020b8160020b1315610733577ffffffffffffffffffffffffffffffffffffffffffffffffffffffffffff2761860000390505b600061073e82610c9d565b905060008490507f000000000000000000000000000000000000000000000000000000000000000073ffffffffffffffffffffffffffffffffffffffff1663128acb083060008486604051806020016040528060008152506040518663ffffffff1660e01b8152600401808673ffffffffffffffffffffffffffffffffffffffff16815260200185151581526020018481526020018373ffffffffffffffffffffffffffffffffffffffff16815260200180602001828103825283818151815260200191508051906020019080838360005b8381101561082b578082015181840152602081019050610810565b50505050905090810190601f1680156108585780820380516001836020036101000a031916815260200191505b5096505050505050506040805180830381600087803b15801561087a57600080fd5b505af115801561088e573d6000803e3d6000fd5b505050506040513d60408110156108a457600080fd5b81019080805190602001909291908051906020019092919050505050505050505050565b7f000000000000000000000000000000000000000000000000000000000000000081565b6101f481565b7f000000000000000000000000000000000000000000000000000000000000000081565b7f000000000000000000000000000000000000000000000000000000000000000081565b7f000000000000000000000000000000000000000000000000000000000000000073ffffffffffffffffffffffffffffffffffffffff163373ffffffffffffffffffffffffffffffffffffffff16146109fb576040517f08c379a00000000000000000000000000000000000000000000000000000000081526004018080602001828103825260178152602001807f63616c6c6261636b206f6e6c792066726f6d20706f6f6c00000000000000000081525060200191505060405180910390fd5b6000841315610b495760008490507f000000000000000000000000000000000000000000000000000000000000000073ffffffffffffffffffffffffffffffffffffffff1663a9059cbb33836040518363ffffffff1660e01b8152600401808373ffffffffffffffffffffffffffffffffffffffff16815260200182815260200192505050602060405180830381600087803b158015610a9a57600080fd5b505af1158015610aae573d6000803e3d6000fd5b505050506040513d6020811015610ac457600080fd5b8101908080519060200190929190505050610b47576040517f08c379a00000000000000000000000000000000000000000000000000000000081526004018080602001828103825260118152602001807f544f4b454e3020706179206661696c656400000000000000000000000000000081525060200191505060405180910390fd5b505b6000831315610c975760008390507f000000000000000000000000000000000000000000000000000000000000000073ffffffffffffffffffffffffffffffffffffffff1663a9059cbb33836040518363ffffffff1660e01b8152600401808373ffffffffffffffffffffffffffffffffffffffff16815260200182815260200192505050602060405180830381600087803b158015610be857600080fd5b505af1158015610bfc573d6000803e3d6000fd5b505050506040513d6020811015610c1257600080fd5b8101908080519060200190929190505050610c95576040517f08c379a00000000000000000000000000000000000000000000000000000000081526004018080602001828103825260118152602001807f544f4b454e3120706179206661696c656400000000000000000000000000000081525060200191505060405180910390fd5b505b50505050565b60008060008360020b12610cb4578260020b610cbc565b8260020b6000035b90507ffffffffffffffffffffffffffffffffffffffffffffffffffffffffffff2761860000360020b811115610d5a576040517f08c379a00000000000000000000000000000000000000000000000000000000081526004018080602001828103825260018152602001807f540000000000000000000000000000000000000000000000000000000000000081525060200191505060405180910390fd5b600080600183161415610d7e57700100000000000000000000000000000000610d90565b6ffffcb933bd6fad37aa2d162d1a5940015b70ffffffffffffffffffffffffffffffffff16905060006002831614610dca5760806ffff97272373d413259a46990580e213a8202901c90505b60006004831614610def5760806ffff2e50f5f656932ef12357cf3c7fdcc8202901c90505b60006008831614610e145760806fffe5caca7e10e4e61c3624eaa0941cd08202901c90505b60006010831614610e395760806fffcb9843d60f6159c9db58835c9266448202901c90505b60006020831614610e5e5760806fff973b41fa98c081472e6896dfb254c08202901c90505b60006040831614610e835760806fff2ea16466c96a3843ec78b326b528618202901c90505b60006080831614610ea85760806ffe5dee046a99a2a811c461f1969c30538202901c90505b6000610100831614610ece5760806ffcbe86c7900a88aedcffc83b479aa3a48202901c90505b6000610200831614610ef45760806ff987a7253ac413176f2b074cf7815e548202901c90505b6000610400831614610f1a5760806ff3392b0822b70005940c7a398e4b70f38202901c90505b6000610800831614610f405760806fe7159475a2c29b7443b29c7fa6e889d98202901c90505b6000611000831614610f665760806fd097f3bdfd2022b8845ad8f792aa58258202901c90505b6000612000831614610f8c5760806fa9f746462d870fdf8a65dc1f90e061e58202901c90505b6000614000831614610fb25760806f70d869a156d2a1b890bb3df62baf32f78202901c90505b6000618000831614610fd85760806f31be135f97d08fd981231505542fcfa68202901c90505b600062010000831614610fff5760806f09aa508b5b7a84e1c677de54f3e99bc98202901c90505b6000620200008316146110255760806e5d6af8dedb81196699c329225ee6048202901c90505b60006204000083161461104a5760806d2216e584f5fa1ea926041bedfe988202901c90505b60006208000083161461106d5760806b048a170391f7dc42444e8fa28202901c90505b60008460020b13156110a657807fffffffffffffffffffffffffffffffffffffffffffffffffffffffffffffffff816110a257fe5b0490505b600064010000000082816110b657fe5b06146110c35760016110c6565b60005b60ff16602082901c019250505091905056fea2646970667358221220dbbff7d3ee035ba7718dcb60480868d2ab9a90204fe1278f37edf5fc59d4072864736f6c63430007060033","linkReferences":{}},"methodIdentifiers":{"MAX_TICK_MOVE()":"5ae7eb96","POOL()":"7535d246","TOKEN0()":"443ec74d","TOKEN1()":"5ee04d78","swapExact0For1(uint256)":"16601590","swapExact1For0(uint256)":"20484aed","uniswapV3SwapCallback(int256,int256,bytes)":"fa461e33"},"id":26}